{
  "contractName": "Booking",
  "abi": [
    {
      "constant": true,
      "inputs": [
        {
          "internalType": "uint256",
          "name": "",
          "type": "uint256"
        }
      ],
      "name": "Bookers",
      "outputs": [
        {
          "internalType": "address",
          "name": "",
          "type": "address"
        }
      ],
      "payable": false,
      "stateMutability": "view",
      "type": "function"
    },
    {
      "constant": false,
      "inputs": [
        {
          "internalType": "uint256",
          "name": "CarID",
          "type": "uint256"
        }
      ],
      "name": "Reserve",
      "outputs": [
        {
          "internalType": "uint256",
          "name": "",
          "type": "uint256"
        }
      ],
      "payable": false,
      "stateMutability": "nonpayable",
      "type": "function"
    },
    {
      "constant": true,
      "inputs": [],
      "name": "getBookers",
      "outputs": [
        {
          "internalType": "address[8]",
          "name": "",
          "type": "address[8]"
        }
      ],
      "payable": false,
      "stateMutability": "view",
      "type": "function"
    }
  ],
  "bytecode": "0x608060405234801561001057600080fd5b506102b9806100206000396000f3fe608060405234801561001057600080fd5b50600436106100415760003560e01c80631db1a7ba1461004657806360538b33146100b4578063db7b64a8146100fa575b600080fd5b6100726004803603602081101561005c57600080fd5b810190808035906020019092919050505061013c565b604051808273ffffffffffffffffffffffffffffffffffffffff1673ffffffffffffffffffffffffffffffffffffffff16815260200191505060405180910390f35b6100bc61016f565b6040518082600860200280838360005b838110156100e75780820151818401526020810190506100cc565b5050505090500191505060405180910390f35b6101266004803603602081101561011057600080fd5b81019080803590602001909291905050506101f0565b6040518082815260200191505060405180910390f35b6000816008811061014957fe5b016000915054906101000a900473ffffffffffffffffffffffffffffffffffffffff1681565b610177610261565b60006008806020026040519081016040528092919082600880156101e6576020028201915b8160009054906101000a900473ffffffffffffffffffffffffffffffffffffffff1673ffffffffffffffffffffffffffffffffffffffff168152602001906001019080831161019c575b5050505050905090565b6000808210158015610203575060078211155b61020c57600080fd5b336000836008811061021a57fe5b0160006101000a81548173ffffffffffffffffffffffffffffffffffffffff021916908373ffffffffffffffffffffffffffffffffffffffff160217905550819050919050565b60405180610100016040528060089060208202803883398082019150509050509056fea265627a7a72315820b736d6f16288b382f9726494a1218bbc4dc04706638ceb66ca00cae157695ea764736f6c63430005100032",
  "source": "pragma solidity ^0.5.0;\n\ncontract Booking {\n    address[8] public Bookers;\n\n    function Reserve(uint CarID) public returns (uint) {\n        require(CarID >= 0 && CarID <=7);\n        Bookers[CarID] = msg.sender;\n        return CarID;\n    }\n\n    function getBookers() public view returns (address[8] memory) {\n        return Bookers;\n    }\n}",
  "sourcePath": "/home/fintech/Documents/DApp/Ass3/contracts/Booking.sol",
  "compiler": {
    "name": "solc",
    "version": "0.5.16+commit.9c3226ce.Emscripten.clang"
  },
  "schemaVersion": "3.3.2",
  "updatedAt": "2021-01-12T14:13:37.590Z",
  "networkType": "ethereum",
  "devdoc": {
    "methods": {}
  },
  "userdoc": {
    "methods": {}
  }
}